S01100003134352E70726F6A332E737265635D
S11300000C942A000C943F000C943F000C943F0085
S11300100C943F000C943F000C943F000C943F0060
S11300200C943F000C943F000C943F000C943F0050
S11300300C943F000C943F000C943F000C943F0040
S11300400C943F000C943F000C943F000C943F0030
S11300500C943F0011241FBECFE5D8E0DEBFCDBF16
S113006011E0A0E6B0E0EAECFAE002C005900D92DF
S1130070A231B107D9F70E9427010C9463050C94AF
S113008000009C0183E083BF83EF08C082BF98B760
S1130090916098BFA89508B600FEFDCF21503109A4
S11300A0A8F713BE089514BA90EF95BB44B321E0AA
S11300B030E0F90102C0EE0FFF1F8A95E2F7CF018D
S11300C04E2B44BB95B38095892385BB85B370E0E3
S11300D06C5F7F4F062E02C0220F331F0A94E2F793
S11300E0282B25BB83B390E002C0959587956A952C
S11300F0E2F7F1E08F27817008951F93CF93DF9388
S1130100D0E010E012C06C2F8D2F0E945300882382
S113011031F0CF5F8D2F880F880F8C0F08C0CF5F11
S1130120C43089F7DF5FD43011F0C12FECCFDF91F9
S1130130CF911F9108950E947D00E82FF0E0E05ACE
S1130140FF4F80810895662311F0C09A01C0C098C2
S1130150C19882BB8FEF81BBC29A000000000000EF
S1130160C2980895C098C19A11BA90B3C29A000077
S11301700000000011BA90B3C29899239CF30E9426
S1130180A3000895B89AB99ABA9A80E190E00E94BF
S1130190410060E080E30E94A30085E090E00E94BB
S11301A0410060E080E30E94A30081E090E00E94AF
S11301B0410060E08CE30E94B20060E08CE00E94A9
S11301C0B20060E086E00E94B20060E081E00E943C
S11301D0B200089560E081E00E94B2000895CF93D8
S11301E0C62F98E2899FC00D112460E082E00E942E
S11301F0B200CC2331F060E084E10E94B200C1502F
S1130200D1F7CF910895CF93DF93EC012196FC01B0
S11302108081882331F061E00E94B20089918111CC
S1130220FACFDF91CF91089560E080E00E94EF0063
S11302300E94EA0081E790E00E94030160E081E00F
S11302400E94EF0086E890E00E9403010895CF9396
S1130250DF93CDB7DEB7C35ED1400FB6F894DEBFEF
S11302600FBECDBF0E94C2000E94EA0081E08ABB9B
S11302701B8289E193E39D838C8386E28E838BE5E5
S113028099E398878F8382E2898781E690E49B874C
S11302908A878EE18C8785E394E49E878D878DE140
S11302A08F8780E99CE4998B888B8AE18A8B80EF25
S11302B095E59C8B8B8B87E18D8B86E790E69F8BF6
S11302C08E8B84E1888F83E396E69A8F898F0F2E35
S11302D0F3E18F2EF02D8B8E86EB92E79D8F8C8F22
S11302E081E18E8F83EC90E898A38F8F8FE089A3B0
S11302F08BE698E89BA38AA30F2EFEE09F2EF02D99
S11303009CA280E299E99EA38DA38DE08FA380EE49
S11303109BEA99A788A78BE08AA78CEE90EC9CA710
S11303208BA78AE08DA785E69CEC9FA78EA789E022
S113033088AB8DE695EE9AAB89AB88E08BABCE01AA
S113034001969DAB8CAB88EE93E09FAB8EABCE0158
S1130350049699AF88AFE2E3F0E0FBAFEAAF9DAF5C
S11303608CAF84E690E09FAF8EAF6E0120E4C20EA6
S1130370D11C9E01295F3F4FD60111963C932E93C9
S113038013969C938E9312972D5F3F4F26963FAF03
S11303902EAF269728969FAF8EAF28971E01B8E4FC
S11303A02B0E311CD10111963C932E9328EC30E096
S11303B013963C932E931297AE01435F5F4F2E9694
S11303C05FAF4EAF2E9760969FAF8EAF60976296E9
S11303D05FAF4EAF629764963FAF2EAF64974D5FA9
S11303E05F4F66965FAF4EAF669768969FAF8EAFCE
S11303F068974D5F5F4F6A965FAF4EAF6A976C9692
S11304009FAF8EAF6C974D5F5F4F6E965FAF4EAFF1
S11304106E97A096FFAFEEAFA097A2965FAF4EAFD8
S1130420A297A4963FAF2EAFA4974D5F5F4FA696B9
S11304305FAF4EAFA697A8969FAF8EAFA897AA9628
S11304405FAF4EAFAA97AC963FAF2EAFAC975E01AD
S1130450BCE6AB0EB11C4D5F5F4FD50111965C93AA
S11304604E9313969C938E931297E2965FAF4EAF82
S1130470E297E4963FAF2EAFE4974D5F5F4FE69669
S11304805FAF4EAFE697E8969FAF8EAFE8973E0119
S1130490B8E76B0E711CD30111965C934E931396BF
S11304A03C932E9312978E0104581F4F4D5F5F4F5C
S11304B0D80111965C934E931396FC93EE93129786
S11304C0C058DF4F59834883C058D040CE57DF4FC0
S11304D099838883C258D0407E01B4E8EB0EF11CA6
S11304E04D5F5F4FD70111965C934E931396FC9327
S11304F0EE931297C857DF4F59834883C858D040AA
S1130500C657DF4F99838883CA58D040C457DF4FFA
S113051059834883CC58D040C257DF4F398328834E
S1130520CE58D0404D5F5F4FC057DF4F598348834B
S1130530C059D040CE56DF4F99838883C259D040EA
S1130540CC56DF4F59834883C459D040CA56DF4F35
S113055039832883C659D0404D5F5F4FC856DF4F5B
S113056059834883C859D040C656DF4F998388833E
S1130570CA59D0402E01BCE94B0E511CD201119630
S11305805C934E9313963C932E931297BE01625D37
S11305907F4FC056DF4F79836883C05AD040CE5511
S11305A0DF4FF983E883C25AD040CC55DF4F7983BB
S11305B06883C45AD040CA55DF4F99838883C65A8A
S11305C0D04043585F4FDA0111967C936E93139693
S11305D03C932E93129762587F4F0F2EF1E38F2E88
S11305E0912CF02D8C0E9D1EDB0111969C928E9207
S11305F01396FC93EE931297C055DF4F998288822D
S1130600C05BD040CE54DF4F99838883C25BD04017
S11306104E0184EB880E911CE1E3F0E0EC0FFD1F2A
S1130620D4011196FC93EE9313963C932E93129758
S1130630E655FF4FCE01C8969183808393838283CE
S1130640D582C4829E01245C3F4F37832683ACE469
S1130650B0E0AC0FBD1FB187A08733862286958793
S1130660848797878687D18AC08A338B228BB58B00
S1130670A48B378A268A918F808F938F828F24E66A
S113068030E02C0F3D1F358F248F88E590E08C0FD0
S11306909D1F978F868FB1A3A0A3A4E4B0E0AC0FF5
S11306A0BD1FB3A3A2A3D5A2C4A22CE530E02C0F96
S11306B03D1F37A326A331A720A793A782A78CE4C5
S11306C090E08C0F9D1F95A784A7A4E5B0E0AC0F24
S11306D0BD1FB7A7A6A720E530E02C0F3D1F31AB07
S11306E020AB89E1C652DF4F8883CA5DD040C8522F
S11306F0DF4FF983E883C85DD04086E1E7E9F0E0A5
S1130700AC59BF4F01900D928A95E1F7FE01E05D6F
S1130710FE4F80E690E08C0F9D1F91838083A0E7BD
S1130720B0E0AC0FBD1FB383A2838C979583848301
S1130730B782A68224E730E02C0F3D1F3187208743
S11307409387828775866486F786E686118B008B8D
S1130750F38AE28A158B048BF78AE68A118F008F5D
S1130760B38EA28E958F848FB78EA68E31A320A3CD
S113077093A382A375A264A2C35DDE4FF983E883C9
S1130780CD52D14033E1C15DDE4F3883CF52D140E9
S11307902FE0EDEAF0E0A356BF4F01900D922A95A9
S11307A0E1F7FE01E758FE4F7183608393838283F0
S11307B07583648397838683718760879387828731
S11307C0A0EBB0E0AC0FBD1FB587A4875786468663
S11307D024EA30E02C0F3D1F318B208B738B628B0E
S11307E0A0EAB0E0AC0FBD1FB58BA48B978A868AB4
S11307F0918E808E938E828ECA58DE4FF983E88361
S1130800C657D140BEE0C858DE4FB883C857D14060
S11308102CE1ECEBF0E0DE01AA5ABE4F01900D9200
S11308202A95E1F7FE01E854FE4F51834083538338
S113083042830F2EF8E98F2E912CF02D8C0E9D1EE5
S11308409582848220E930E02C0F3D1F3783268374
S1130850ACE8B0E0AC0FBD1FB187A0870F2EF8E85D
S11308608F2E912CF02D8C0E9D1E9386828620E86F
S113087030E02C0F3D1F3587248777866686A0E7F6
S1130880B0E0AC0FBD1FB18BA08B0F2EF8E68F2EFE
S1130890912CF02D8C0E9D1E938A828A24E630E0E2
S11308A02C0F3D1F358B248BA8E8B0E0AC0FBD1F87
S11308B0B78BA68B0F2EF4E98F2E912CF02D8C0E76
S11308C09D1E918E808E938E828E958F848F20E9CB
S11308D030E02C0F3D1F378F268F51A240A253A228
S11308E042A295A384A388E990E08C0F9D1F97A34F
S11308F086A351A740A753A742A7CB54DE4FF98341
S1130900E883C55BD14086E1C954DE4F8883C75B69
S1130910D14081E1E8EDF0E0A35FBE4F01900D927C
S11309208A95E1F70E9414010E949B00182F88EE1B
S113093093E00E944100123431F118F4113439F07B
S1130940F3CF1334E1F1143409F455C0EDCF60E072
S113095080E00E94EF000E94EA0089EE90E00E948D
S1130960030160E081E00E94EF0086EA90E00E94CB
S11309700301CE0188549F4F0E943D050E94EA0066
S11309800E941401D1CF60E080E00E94EF000E9439
S1130990EA008DE790E00E94030160E081E00E949C
S11309A0EF0082ED90E00E940301CE01835F9E4F31
S11309B00E943D050E94EA000E941401B5CF60E048
S11309C080E00E94EF000E94EA0088EF90E00E941D
S11309D0030160E081E00E94EF0082ED90E00E945C
S11309E00301CE018A5A9E4F0E943D050E94EA00EF
S11309F00E94140199CF60E080E00E94EF000E9401
S1130A00EA0086E091E00E94030160E081E00E9438
S1130A10EF0083EE90E00E940301CE018B569E4FBF
S1130A200E943D050E94EA000E9414017DCF0F93AD
S1130A301F93CF93DF93FC0122813381232BC1F0D9
S1130A40EC0100E010E0D89AE881F981828190E01D
S1130A500E944100D898E881F981828190E00E9447
S1130A6041000F5F1F4F8A819B810817190758F3B4
S1130A70DF91CF911F910F9108950F931F93CF93FF
S1130A80DF93DC0192962C912223C1F08C01C0E00B
S1130A90D0E09E01220F331FD8019096ED91FC9176
S1130AA09197E20FF31F808191810E94170521968F
S1130AB0F80122A130E0C217D30758F3DF91CF9198
S10D0AC01F910F910895F894FFCFE1
S1130ACA5A3132334134353642373839432A30239E
S1130ADA44313A20484232552020323A2049726F32
S1130AEA6E204D616E00333A204646202020203481
S1130AFA3A204A3254570048617070792042697228
S1130B0A746864617920746F20596F750049726F33
S1130B1A6E204D616E20496E74726F0046696E6173
S1130B2A6C2046616E746173792046616E666172E7
S1130B3A6520496E74726F004A6F7920746F20744D
S1130B4A686520576F726C6400486170707920423E
S1130B5A697274686461790046696E616C204661E1
S1130B6A6E74617379004A6F7920746F20746865B2
S1050B7A000075
S9030000FC
